:0200000056C0E8
:1000020084C0A9C0FCCFFBCFFACFF9CFF8CF0BC188
:10001200F6CFF5CFF4CFF3CFF2CFF1CFF0CFEFCFD2
:10002200EECFEDCFECCFEBCF1027E80364000A0050
:100032000100001000011000010000005669736306
:100042006F6D657465722020202020200054696D38
:10005200657220537461727420202020200054693C
:100062006D65203D20253564206D73005265616405
:10007200792020202020202020202020000080C065
:10008200010002003C001100E0003E001100F100FE
:100092004F00110002013E00110013013E00110049
:1000A20024016E0002004D0180000000F894EE274A
:1000B200ECBBF1E0FBBFEBBFE5BFF8E1F1BDE1BD99
:1000C2008DE0A2E0BB27ED938A95E9F780E092E00C
:1000D200A0E6ED930197E9F7E2E8F0E085919591CA
:1000E200009761F0A591B59105901590BF01F001BF
:1000F20005900D920197E1F7FB01F0CFEFE5EDBF1F
:10010200E2E0EEBFC0EED0E09AC0F2D2E0E0E093CF
:100112003901E0933A01E0933B01E0933C01E09323
:100122003501E0933601E0933701E093380144242E
:100132005524E0E0F0E0FDBDECBDE8D2E7D260D2AC
:10014200E0EEF0E0E6D2E2D2E7D2E1EFF0E0E1D297
:10015200689420F85AC0CCD220FE57C0D20188271A
:100162009927E0ECFFEF6FE370E045D37F936F9345
:10017200FF93EF93ECB5FDB566277727A0E4B0E0D7
:1001820080E090E058D3AF91BF918F919F9122D39D
:10019200E0933901F0933A0160933B0170933C0183
:1001A200A0913901B0913A0180913B0190913C01BB
:1001B200E8EEF3E060E070E068D3E0933501F0939D
:1001C20036016093370170933801EDE3F1E0A7D275
:1001D200E0E6F0E0A4D2E0913501F09136016091C1
:1001E20037017091380171D384E0AFD1289614D2CF
:1001F2008DD28CD205D2E2E0F1E08BD287D28CD2C2
:10020200EDE3F1E086D2E89420F8E991EFBFF991AD
:10021200E991B991A9919991899179916991F9900D
:10022200199009901895EA93FA93EFB7EA93F201BD
:1002320031962F01E991EFBFF991E9911895E0E02C
:10024200EBBBEABBE8BBE7BBE5BBE4BBE2BBE1BBA4
:10025200E3BFE2BFECBFEFBDE5E0EEBDE0E0EDBD28
:10026200ECBDE7BDE6BDEBBDEABDE9BDE8BDE2BD63
:10027200E5BDE4BDE3BDEBB7E06CEBBFEBE0E5BF92
:10028200E0E0E4BFE0ECEABFE4E0E9BFE0E0EAB9C5
:10029200E0E8E8B9E0E0E0BFE6B9EDB9E6BFE0E1E9
:1002A200EA93E7D1B9D132D231D2AAD1E3E1F1E076
:1002B20030D22CD231D2E4E2F1E02BD27894FFCFCB
:1002C200FFCF0CD32FD21296F8D23097F1F02AD268
:1002D2002CD28F01309761F00230E0E01E07A0F0CF
:1002E200F80131978F01AA81BB811496ED93FC939B
:1002F20019D212961DD23197AC81A08313D2DDD2CE
:10030200FF2312F00FD214D205C00CD2EFEFFFEF91
:10031200ED93FC93EAD2259608952697DBD210E05E
:10032200AC85BD85E0E0F0E0ED93FC93EA89FB89C2
:100332003196EA8BFB8B3197E4912E2FE03009F452
:10034200FEC0E12FE03031F4253211F411E001C09A
:10035200F5D1F4C0E130A1F4253211F4EFD1EDC0B2
:1003620012E040E000E02D3211F401E0E7C02B3250
:1003720011F44BE2E3C0203211F440E2DFC002C0CC
:10038200E23039F450E013E0203311F40068D6C0B3
:1003920003C0E33009F0D2C0203310F02A3308F052
:1003A20007C0AAE05A9F502DE22FE0535E0FC6C04D
:1003B200E22FE33639F4CAD1CCD1C8D1A481AA93B1
:1003C200CCD1BBC0E33731F4CFD1D0D1D2D17BD1A4
:1003D2001E2F08C0E03751F4C7D1C8D1CAD17DD190
:1003E2001E2F086002600F7730E02EC0E43611F055
:1003F200E93611F4046002C0E53729F4EAE2F0E0DC
:10040200BBD115E00BC0E83511F4086003C0E83732
:1004120009F093C0E4E3F0E0AFD114E002FF11C0B1
:10042200A3D1A4D1ACD1AB85AA232AF4EA85FB855A
:10043200D6D1A5D14DE2403011F01F5F01C00B7F34
:1004420003C092D193D19BD100FD10C0151770F457
:1004520007FF08C002FF04C00B7F242F115001C008
:1004620020E301C020E26AD15150F0CF312F01FFC9
:1004720015C0303091F003FF05C0EE81FF81259158
:100482007BD105C0AE81BF812D91AE83BF8356D192
:10049200503009F051503150ECCF46C020E3EE818C
:1004A200FF810FD2E887F987EE81FF81329664D10E
:1004B200E885F985AA85BB85AE17BF0748F02F5F8F
:1004C200A885B985EA85FB85EA1BFB0B58D1F0CFDD
:1004D2002A3328F003FF02C0295F01C0295D04FD11
:1004E20019C0213320F4A885B985119709F409C0F0
:1004F200531710F000FF01C011C020E207FF0AC02D
:1005020020E3006102FF06C00B7F4A9326D15030E0
:1005120009F0515013D1503009F051503150A88593
:10052200B985129708F0BACF00FF07C0503029F002
:100532005150E0E2EA9311D1F9CF10E0F7CEAC8549
:10054200BD85BBD1CED164960895FF92F82E269731
:10055200C3D118D1309719F4EFEFFFEF1DC0DE01C0
:10056200169634D18D010ED107D1E0E0E887E987F4
:10057200DE011A962BD1A1D1D2D01A930A93E2E6C8
:10058200F1E0CDD0FE013A96CAD0C7DE9F01AE811E
:10059200BF81E0E0EC93F901A6D12A96FF9008957D
:1005A200E881E07111F0DC9A01C0DC98E881E07228
:1005B20011F0DD9A01C0DD98E881E07411F0DE9A55
:1005C20001C0DE98E881E07811F0DF9A01C0DF987F
:1005D2008BE08A95F1F7DA9A8BE18A95F1F7DA984E
:1005E2008BE18A95F1F76DC0E881D1D0E881E2957F
:1005F200E883E881CCD088EC90E00197F1F761C004
:10060200E881F0E0E35BFE4FE081A981EA0FC1D00F
:100612007980688022960895E2E0BBD0BCD0ECE0FD
:10062200B8D0E1E0B6D0B7D0E0E06E2E7E2E0895CD
:10063200A881AA3011F0791438F068D063946A92D4
:10064200DFDFA881AA30E9F17394D89AE881A1D0BA
:10065200D89837C01A93A981BA81ED91A983BA8338
:100662001E2FE03019F01A93E3DFF5CF188123969D
:100672000895D49AD59AD69AD79AD29AD09AD19ADC
:10068200DA98D898D9989880E881E058E0934F0199
:10069200E881E054E0935001E4E1F0E040D08AD0F8
:1006A200E0E375D07CD07BD080D0E0E270D07DD00A
:1006B200E8E26FD0E4E06DD0E5E86BD0E6E069D027
:1006C200ABDF21960895A991B991EE27FF276D918D
:1006D200662311F03196FBCF0895AA27BB27E99133
:1006E200F9910590002011F01196FBCFFD010895BC
:1006F2000A921A92FA926A937A938A939A93AA9393
:10070200BA93EA93FA93EFB7EA930895E0E0EA9393
:100712000895FA93EA939ECFE1E0EA9371CFFA93B8
:10072200EA930895AA81BB8108951496C6D00895CC
:10073200ED91FD913196FE93EE9308952A93ED8506
:10074200FE85EDDFE989FA8909950895E889F98935
:1007520008953497E88BF98B0895ED85FE85DFDFE8
:10076200E989FA8909950895F1DFF3CFA889B98952
:10077200DCCFEE83FF83D3CFEE83FF830895EA8736
:10078200FB870895DE011C9621D097D00895EA9345
:1007920007CFEA9329CFE3E0F0E0C1DF0BC080E9A5
:1007A20091E00197F1F7E0E3F2CF80E991E0019760
:1007B200F1F70895E991F991309639F080EA9FE0D6
:1007C2000197F1F7A8953197C9F708950024AF0D65
:1007D200B01D0895EA0FFB1F681F791F0895F19558
:1007E200E195F0400895F09560957095E195FF4F81
:1007F2006F4F7F4F08957A9F702D6B9F700DF89FFA
:10080200700DE99F700D6A9F602D710DFB9F600D49
:10081200711DE89F600D711D8827FA9FF02D610DF3
:10082200781FEB9FF00D611D781FEA9FE02DF10DFF
:10083200681F781F08952ED0DEDF0EF4D4DF0895EE
:100842003F934F935F93002411244427552730E2AE
:10085200AA0FBB1F881F991F001C111C441F551F84
:100862000E1A1F0A460B570B28F40E0E1F1E461FA8
:10087200571F01C0A1603A9559F7FD01BC01D00193
:10088200CA015F914F913F91089504D0D9DF0EF4D0
:10089200AADF0895E89477FF02C0A5DF689497FF66
:1008A2000BC00024A095B095809590951196801D5F
:1008B200901D00F8039400FA0895ED91FC911197B0
:1008C20008950590F491E02D08957A936A93FA932E
:1008D200EA9308955A934A933A932A931A930A935E
:1008E20008955D814C813B812A8119810881089597
:00000001FF
